:020000040800F2
:10000000001200209D010008AD0A000871090008D7
:10001000A90A0008150600080F19000800000000D2
:10002000000000000000000000000000ED120008C9
:100030006D08000800000000A11100082914000844
:10004000B7010008B7010008B7010008B7010008B0
:10005000B7010008B7010008B7010008B7010008A0
:10006000B7010008B7010008B7010008B701000890
:10007000B7010008B7010008B7010008B701000880
:10008000B7010008B7010008B7010008B701000870
:10009000B7010008B7010008B7010008B701000860
:1000A000B7010008B7010008B7010008B701000850
:1000B000B7010008B7010008B7010008B701000840
:1000C000B7010008B7010008B7010008B701000830
:1000D000B7010008FD1500081D160008B70100084B
:1000E000B7010008B7010008B7010008B701000810
:1000F000B7010008B7010008B7010008B701000800
:10010000B7010008B7010008B7010008B7010008EF
:10011000B7010008B7010008B7010008B7010008DF
:10012000B7010008B7010008B7010008B7010008CF
:10013000B7010008B7010008B7010008B7010008BF
:10014000B7010008B7010008B7010008B7010008AF
:10015000B7010008B7010008B7010008B70100089F
:10016000B7010008B7010008B7010008B70100088F
:10017000B7010008B7010008B7010008B70100087F
:10018000B7010008B7010008DFF80CD000F06AF8EA
:1001900000480047D11F0008001200200648804791
:1001A00006480047FEE7FEE7FEE7FEE7FEE7FEE75C
:1001B000FEE7FEE7FEE7FEE72D14000889010008D0
:1001C000D2B201E000F8012B491EFBD27047002299
:1001D000F6E710B513460A4604461946FFF7F0FF46
:1001E000204610BD10B5002200E0521C835C8C5CE0
:1001F000A34201D1002BF8D1D8B2E1B2401A10BD10
:100200002DE9F05F0546002092469B46884606464B
:10021000814640241BE0284641464746224600F0DE
:1002200042F853465A46C01A914110D31146184617
:10023000224600F029F82D1A67EB01084F462246A6
:100240000120002100F020F817EB00094E41201E8C
:10025000A4F10104DFDC484631462A464346BDE8A6
:10026000F09F0000064C074D06E0E06840F00103F7
:1002700094E8070098471034AC42F6D3FFF788FFA4
:10028000C8490008E8490008202A04DB203A00FA9F
:1002900002F1002070479140C2F1200320FA03F3DD
:1002A000194390407047202A04DB203A21FA02F0DB
:1002B0000021704721FA02F3D040C2F120029140A0
:1002C00008431946704770B58D1810F8014B14F0AB
:1002D000030201D110F8012B231106D110F8013BC4
:1002E00003E010F8016B01F8016B521EF9D1ABB1BC
:1002F00010F8012B04F00C048A1A0C2C03D0A2EB8A
:1003000084129B1C08E010F8014BA2EB0422F8E7D2
:1003100012F8014B01F8014B5B1EF9D5A942D4D369
:10032000002070BD00B59BB00121394800F03AFFB4
:100330000121080200F056FF03208DF8680040F20A
:100340000140199000208DF86B0019A9314800F088
:100350008EFA19A9304800F08AFA002017901590FB
:100360004FF4803016900020189015A800F068F81F
:1003700001208DF8410000201390119001208DF88C
:10038000500000200F9001208DF840000FA9234855
:1003900000F084F8642004900020009003900B90FB
:1003A0001F48029000200D904FF400500890C0109C
:1003B00006908010099019484C30019000200E9052
:1003C0004FF400600790002005904FF440300A90F1
:1003D0006946144800F01EFA0723012200210F4845
:1003E00000F086F801210D4800F04DF801210D487C
:1003F00000F004FA0121094800F016F8012107482D
:1004000000F036F8054800F0CFF81BB000BD000042
:1004100005004000000002400008024000200140AA
:10042000D00C00201064024021B1826842F0010229
:10043000826003E0826822F001028260704700005F
:100440000021084A1168084A1140D0E900231A43E4
:1004500083681A43C3681A431143044AC2F8041359
:100460007047000004230140E030FCFF0020014001
:1004700021B1826842F48072826003E0826822F4D3
:1004800080728260704721B1826842F4007282609B
:1004900003E0826822F400728260704730B5024641
:1004A000002000235068104C20400D790C6844EA6D
:1004B00005242043506090680C4C2040D1E903543F
:1004C0002C438D682C434D7944EA450420439060C9
:1004D000D06A20F470000C7D641EE4B2234340EA2D
:1004E0000350D06230BD0000FFFEFFFCFDF7FFC0EF
:1004F000F0B504460D4600200021092D11DDE0680D
:10050000A5F10A0606EB4607072606FA07F1884317
:10051000A5F10A0606EB460603FA06F10843E06079
:100520000CE0206905EB4507072606FA07F188432A
:1005300005EB450603FA06F108432061072A0FDAA6
:10054000606B561E06EB86071F2606FA07F18843E6
:10055000561E06EB860605FA06F10843606322E0A4
:100560000D2A0FDA206BD61F06EB86071F2606FA28
:1005700007F18843D61F06EB860605FA06F1084305
:10058000206310E0E06AA2F10D0606EB86071F2645
:1005900006FA07F18843A2F10D0606EB860605FA76
:1005A00006F10843E062F0BD816841F0804181605E
:1005B000704700001CB50121022000F0F3FD4FF44C
:1005C0008060009001208DF8040000208DF8060066
:1005D00003208DF8050000208DF8070069460248C9
:1005E00000F045F91CBD00000004024010B54FF4B6
:1005F0008061024800F0B8F910BD0000000402401C
:1006000010B54FF48061024800F0B0F910BD000051
:100610000004024000BFFEE710B5002400F028F8F7
:1006200004E0601CC4B2012001F09AFB08210F48CD
:1006300000F088F908B1642CF3DB642C01DB0120A5
:1006400010BD002404E0601CC4B2012001F088FB4E
:100650000821064800F076F908B9642CF3DB642C15
:1006600001DB0120ECE70020EAE700000000024087
:100670001CB50121084600F095FD00208DF804000E
:10068000082000906946024800F0F1F81CBD000007
:10069000000002401CB50121084600F083FD012046
:1006A0008DF8040000208DF806000820009002203C
:1006B0008DF805006946024800F0D9F81CBD00001D
:1006C000000002401CB50121084600F06BFD082027
:1006D000009001208DF8040000208DF80600022013
:1006E0008DF805006946064800F0C1F80821044865
:1006F00000F03CF900F06EF8FFF78EFF1CBD000023
:100700000000024010B5002404E0601CC4B20120C7
:1007100001F026FB0821104800F014F908B1642C00
:10072000F3DB002404E0601CC4B2012001F018FBDC
:100730000821094800F006F908B9642CF3DB2820E9
:1007400001F00EFB0821044800F0FCF808B101207C
:1007500010BD0020FCE700000000024070B500243E
:10076000002506E06006040EFFF7CCFF0443681C7A
:10077000C5B2082DF6DB204670BD7CB505460E4699
:1007800000F028F8FFF748FFF8B9002405E0FFF76C
:10079000E5FF0DF80400601CC4B2052CF7DB9DF8E2
:1007A00000009DF8011008449DF8021008449DF8CF
:1007B000031008449DF80410884208D19DF80000F9
:1007C00030709DF80200287001E001207CBD0020FF
:1007D000FCE7000010B5FFF75DFF0821064800F0B8
:1007E000C3F8142001F082FA0821034800F0BEF893
:1007F0001E2001F0B5FA10BD0000024021B10268D0
:1008000042F00102026003E0026822F0010202608D
:100810007047000010B500220268134B1A40CC68E4
:100820000B6823434C6923438C692343CC692343DE
:100830000C6A23434C6A23438C6A23434C6B234347
:100840008C6B23431A430260426922F00702D1E90C
:100850000B3423431A4342610B6943604B68836046
:100860008B68C36010BD00003F801CF07047F0B57E
:100870000A4600210023002400BF3DE0012505FABF
:1008800001F3156805EA03049C4234D105684F0062
:100890000326BE40B543056015794E00B540066895
:1008A000354305601579012D02D01579022D16D139
:1008B00085684F000326BE40B543856055794E00DC
:1008C000B540866835438560456801268E40B5434E
:1008D0004560456896798E40B6B235434560C56837
:1008E0004F000326BE40B543C560D5794E00B540E4
:1008F000C6683543C560491C1029BFD3F0BDF0B5AB
:10090000002300244D07ED0E02FA05F3CE1000F18E
:10091000200555F826504E07F70E0F26BE40B5436A
:10092000CF1000F1200646F82750CE1000F1200528
:1009300055F8265045EA0304CE1000F1200545F88D
:100940002640F0BD0246002013690B400BB1012088
:1009500000E0002070470246002053690B400BB1B5
:10096000012000E0002070474183704701837047F9
:1009700000BFFEE710B580210A48FFF7F7FF4021CE
:100980000848FFF7F3FF00F037F880210548FFF72C
:10099000EBFF00F031F840210248FFF7E5FF00F0DF
:1009A0002BF810BD0004024010B580210648FFF767
:1009B000DBFF40210448FFF7D9FF00F01DF880213C
:1009C0000148FFF7D3FF10BD0004024010B580219D
:1009D0000848FFF7CBFF00F00FF840210548FFF76C
:1009E000C5FF00F009F840210248FFF7BDFF00F005
:1009F00003F810BD000402400A2000BF011EA0F150
:100A00000102D0B2FAD170471CB50121142000F0C8
:100A1000C9FB42F27000009000208DF80400012014
:100A20008DF8070069460448FFF721FF694603482F
:100A3000FFF71DFF1CBD000000100240000802402F
:100A400010B54FF480710248FFF790FF10BD000011
:100A50000010024010B54FF480710248FFF784FF88
:100A600010BD0000001002401CB50121102000F054
:100A700099FB4FF4E060009001208DF80400002005
:100A80008DF8060003208DF8050000208DF8070082
:100A900069460448FFF7EBFE4FF4E0610148FFF7B9
:100AA00065FF1CBD0010024000BFFEE7704700005C
:100AB00070B5002100230F22C4781CB3174C2468A2
:100AC00004F4E064C4F5E064C4F30721C1F1040454
:100AD000E3B20A4144789C40E1B284781440214357
:100AE0000C07210E0E4C05786155047804F01F05A3
:100AF0000124AC4005786D11AD0005F1E025C5F885
:100B0000004109E0047804F01F050124AC40054DC4
:100B10000678761145F8264070BD00000CED00E027
:100B200000E400E080E100E002490143024A116074
:100B3000704700000000FA050CED00E070B50024DD
:100B40000CE0002506E00020074901EBC50108552F
:100B5000681CC5B2802DF6DB601CC4B2082CF0DB2B
:100B600000F0E8F870BD000050080020F0B5144611
:100B70000B46CF1701EB5777C7F3C702CF1701EB2F
:100B80005777FF10A1EBC707FEB20123B340DDB2D8
:100B90004CB1134B03EBC0039B5C2B43104F07EB93
:100BA000C007BB541AE00E4B03EBC0039B5CDB4356
:100BB0000B4F07EBC007BB54094B03EBC0039B5C17
:100BC0002B43074F07EBC007BB54054B03EBC00398
:100BD0009B5CDB43024F07EBC007BB54F0BD00003A
:100BE000500800201CB50121022000F0DBFA402053
:100BF000009001208DF804008DF8060002208DF889
:100C0000050001208DF8070069464348FFF72FFED5
:100C10008020009001208DF804008DF8060002204D
:100C20008DF8050001208DF8070069463A48FFF766
:100C30001EFE0021AE2000F03CFA0021084600F024
:100C400038FA0021102000F034FA0021402000F092
:100C500030FA0021812000F02CFA0021CF2000F092
:100C600028FA0021A12000F024FA0021C82000F079
:100C700020FA0021A62000F01CFA0021A82000F094
:100C800018FA00213F2000F014FA0021D32000F0D0
:100C900010FA0021084600F00CFA0021D52000F0DF
:100CA00008FA0021802000F004FA0021D92000F089
:100CB00000FA0021F12000F0FCF90021DA2000F018
:100CC000F8F90021122000F0F4F90021DB2000F0F7
:100CD000F0F90021402000F0ECF90021202000F084
:100CE000E8F90021022000F0E4F900218D2000F055
:100CF000E0F90021142000F0DCF90021A42000F02C
:100D0000D8F90021A62000F0D4F9FFF717FF002141
:100D1000AF2000F0CEF91CBD0004024010B5024621
:100D2000012000E050430B1EA1F10104E1B2F9D112
:100D300010BD000070B500242BE004F1B001C8B272
:100D4000002100F0B6F90021084600F0B2F90021B8
:100D5000102000F0AEF9FFF70DFE782000F0C8FA81
:100D6000FFF734FE402000F0C3FAFFF72FFE002506
:100D700009E0094901EBC501085D00F0B9FAFFF788
:100D800025FE681CC5B2802DF3DBFFF70DFE601C4D
:100D9000C4B2082CD1DB70BD500800202DE9FE4FF5
:100DA0000746884692461C460197CDF80080082CDD
:100DB00002D14FF006091FE02046E31704EB5373FE
:100DC000DB1021464FEAE47C04EB5C7C4FEAEC0C40
:100DD000A4EBCC0CBCF1000F02D04FF0010C01E0F1
:100DE0004FF0000C6344224604EBD27C4FEA6C0CBB
:100DF00003FB0CF303F0FF09AAF12000C6B20025A3
:100E00005EE0082C07D106EB46002F4901EB4000BD
:100E100010F805B01DE00C2C07D106EB46002B495D
:100E200001EB800010F805B013E0102C05D1284824
:100E300000EB061010F805B00BE0182C07D106EBFC
:100E4000C600244901EB800010F805B001E0BDE8C0
:100E5000FE8F002002901CE00BF0010028B14146FB
:100E600038460C9AFFF782FE09E00C9808B9012079
:100E700000E00020024641463846FFF777FE4FEA81
:100E80006B0B08F1010000F0FF080298401CC0B293
:100E9000029002980828DFDB781CC7B2082C0BD020
:100EA00004EBD4714A100199791A8A4204D1019F46
:100EB00000980830C0B20090DDF80080681CC5B210
:100EC0004D459EDB00BFC2E7D8290008002C000872
:100ED00074300008643600082DE9FC4F0746884648
:100EE00016461C46BB46CDF804802046E21704EBAC
:100EF0005272D2102146E31704EB5373DB10A4EBBC
:100F0000C3030BB1012300E000231A44624392B2F1
:100F10000092002555E0102C05D12C4800EB46101E
:100F200010F805A01BE0182C07D106EBC6002849D5
:100F300001EBC00010F805A011E0202C05D12548D8
:100F400000EBC61010F805A009E0402C05D122489E
:100F500000EB462010F805A001E0BDE8FC8F4FF043
:100F600000091CE00AF0010028B1414638460B9AFE
:100F7000FFF7FCFD09E00B9808B9012000E0002014
:100F8000024641463846FFF7F1FD4FEA6A0A08F18A
:100F9000010000F0FF0809F1010000F0FF09B9F1BC
:100FA000080FDFDB781CC7B2A7EB0B00A04204D10F
:100FB0005F4601980830C0B20190DDF80480681CDB
:100FC00085B200988542A6DB00BFC6E7C043000893
:100FD0000047000848470008C84700082DE9FF4FB0
:100FE00082B0064691461F46DDE90F4A4FF0000BDE
:100FF000082C01D14FF0020B002530E0781B401E79
:10100000C1B20A20FFF78AFEB9FBF0F00A21B0FB5B
:10101000F1F201FB1208B8F1000F0ED104EBD4710C
:101020000BEB610101FB0561C8B223463022CDE91B
:1010300000A40399FFF7B2FE0FE004EBD4710BEBB1
:10104000610101FB0561C8B208F13001CAB2234653
:10105000CDE900A40399FFF7A1FE681CC5B2BD420B
:10106000CCDB06B0BDE8F08F2DE9F84106460F460F
:1010700014461D46DDF81C8013E0CDF80080227870
:101080002B4639463046FFF789FE082D02D1B01DA8
:10109000C6B205E0284605EBD07106EB6101CEB281
:1010A000641C2078202802DB20787E28E5DDBDE85E
:1010B000F88170B505460C46FFF75CFC782000F01F
:1010C00017F9FFF783FC1CB1402000F011F902E092
:1010D000002000F00DF9FFF779FC284600F008F930
:1010E000FFF774FCFFF760FC70BD000000B58BB02B
:1010F0000121102000F056F80121084600F072F896
:1011000002208DF8280000208DF82A004FF400708E
:10111000099001208DF82B0002208DF8290009A9E3
:101120001D48FFF7A4FB012209211B48FFF7E7FB3D
:101130000020ADF82000ADF81A004FF4FA700790C7
:101140000020ADF8180006A9144800F015FA4FF475
:101150008070ADF814006020ADF804000220ADF8F6
:1011600010000120ADF806000020039001A90B48F3
:1011700000F0B8F90821094800F0F2F90121074808
:1011800000F088F90121054800F09CF9012103488D
:1011900000F08CF90BB000BD0010024000000140CF
:1011A0007047000029B1064A12680243044B1A60D6
:1011B00004E0034A12688243014B1A607047000042
:1011C0003038024029B1064A12680243044B1A60C3
:1011D00004E0034A12688243014B1A607047000022
:1011E0004038024029B1064A12680243044B1A6093
:1011F00004E0034A12688243014B1A607047000002
:1012000044380240F0B500210022002402250026C7
:101210000223324F3F6807F00C0121B1042905D0A9
:10122000082937D105E02E4F076036E02D4F0760C3
:1012300033E02A4F3F1F3F68C7F38056274F3F1FB9
:101240003F6807F03F036EB1264FB7FBF3F7DFF8B7
:101250008CC0ACF1040CDCF800C0CCF3881C07FB9C
:101260000CF40CE01E4FB7FBF3F7DFF870C0ACF1E5
:10127000040CDCF800C0CCF3881C07FB0CF4174FFF
:101280003F1F3F68C7F301477F1C7D00B4FBF5F7A4
:10129000076002E0124F076000BF00BF0F4F3F68BA
:1012A00007F0F0010909104F7A5C0768D7404760E2
:1012B0000A4F3F6807F4E051890A0B4F7A5C476890
:1012C000D7408760054F3F6807F46041490B064FE0
:1012D0007A5C4768D740C760F0BD0000083802401C
:1012E0000024F40040787D013A0800207047000097
:1012F00070B5044600251BE004F0800020B1802179
:101300000D48FFF733FB03E080210B48FFF72CFB70
:10131000FFF772FB40210848FFF728FBFFF76CFB43
:1013200040210548FFF720FB6006040E681CC5B28B
:10133000082DE1DB70BD0000000402400CB5002068
:10134000019000903448006840F4803032490860D1
:1013500000BF3148006800F4003000900198401C44
:101360000190009818B90198B0F5A04FF1D12A4822
:10137000006800F4003010B10120009001E000206E
:1013800000900098012846D123484030006840F082
:1013900080502149403108602048006840F44040B6
:1013A0001E4908601C48083000681B490831086065
:1013B0000846006840F4004008600846006840F4B1
:1013C000A05008601648091F0860081F006840F018
:1013D0008070091F086000BF0F48006800F00070AF
:1013E0000028F9D040F205700E4908600A4808301C
:1013F000006820F0030008490831086008460068CA
:1014000040F00200086000BF03480830006800F0A8
:101410000C000828F8D10CBD0038024000700040D4
:1014200008544007003C02407047000010B51548C2
:10143000006840F47000134908601348006840F0E9
:1014400001001149086000200F49083108600E486A
:1014500000680E4908400C4908600D48091D0860E5
:10146000081F006820F48020091F0860002006493A
:101470000C310860FFF762FF4FF0006001498039CE
:10148000086010BD88ED00E000380240FFFFF6FE66
:101490001030002421B1028842F08002028004E072
:1014A00002884FF67F731A400280704721B102888C
:1014B00042F00102028004E002884FF6FE731A40F7
:1014C0000280704731B1B0F8442042F40042A0F8E5
:1014D000442005E0B0F84420C2F30E02A0F84420F6
:1014E0007047000070B5002400220023058C4FF6E1
:1014F000FE7635400584028C8388048B4FF68F7509
:101500002C40B51E2C400D882C43751E2A408D8919
:101510002A434D882A43104DA84202D00F4DA842BD
:1015200013D14FF6F7752A40CD892A434FF6FB7544
:101530002A408D882A434FF6FF652B404FF6FF5512
:101540002B400D8A2B434D8A2B43838004838D6867
:101550004563028470BD00000000014000040140AA
:101560000A460021018B4FF6F7731940114301839E
:10157000704741637047000000220288184B984270
:101580000ED0184B98420BD0B0F1804F08D0164BBC
:10159000984205D0154B984202D0154B984204D181
:1015A0004FF68F731A404B881A43124B984207D05C
:1015B000114B984204D04FF6FF431A400B891A434F
:1015C00002804B68C3620B880385054B984202D0AA
:1015D000044B984201D18B7A0386012383827047A2
:1015E00000000140000401400004004000080040E9
:1015F000000C0040001000400014004010B540F204
:101600002551054800F0E2F820B140F2255102488A
:1016100000F0C1F810BD00000010014010B540F20C
:101620002551264800F0D2F8002845D040F2255137
:10163000224800F0B0F8214800F060F92049087015
:101640002048007870B9084600782A2806D1012081
:101650001C49087000201C4908702DE00020194921
:10166000087029E017480078012813D11448007841
:101670000D2803D10220134908701DE0104800789E
:101680001249114A127888540F480078401C0E49BC
:10169000087011E00B48007802280DD10848007846
:1016A0000A2809D101200A4908700020054908705C
:1016B0000649054A1278885410BD000000440040D5
:1016C000370800203808002039080020980D002035
:1016D0003608002000B587B001210846FFF762FDFB
:1016E00001211020FFF77EFD02208DF81800002058
:1016F0008DF81A004FF4C060059001208DF81B0092
:1017000002208DF8190005A91C48FFF7B0F8072240
:1017100009211A48FFF7F3F807220A211748FFF7B3
:10172000EEF84FF4E13001900020ADF810000C20ED
:10173000ADF80E000020ADF80C00ADF80A00ADF8D1
:10174000080001A90E4800F073F8012240F225516B
:101750000B4800F048F825208DF8000001208DF896
:1017600001008DF802008DF803006846FFF7A0F92C
:101770000121034800F01EF807B000BD0000024040
:101780000010014001F40072B2F5007F00D100BFEB
:10179000CA430280704710B50022002340F66A1445
:1017A000A14200D100BF0A1201249440A3B2DC433D
:1017B000048010BD21B1828942F40052828104E08C
:1017C00082894DF6FF731A408281704702460020DD
:1017D000B1F5007F00D100BF13880B400BB1012091
:1017E00000E000207047F0B50346002400260025E5
:1017F000002040F66A17B94200D100BF1846C1F375
:10180000421401F01F06012707FA06F5012C01D149
:101810000C3004E0022C01D1103000E014301AB179
:1018200007682F43076002E00768AF430760F0BD19
:101830002DE9FF4705460E460024A046A146002795
:10184000B08900B100BF2C8A24F44054F0880443CE
:101850002C82AC8941F20C608443B0883189084302
:10186000718908430443AC81AC8A24F44074B08984
:101870000443AC826846FFF7C5FC1E48854202D08F
:101880001D48854202D1DDF80C8001E0DDF80880BA
:10189000A88900F4004030B14FEAC800316849001F
:1018A000B0FBF1F905E04FEAC80031688900B0FBF0
:1018B000F1F96420B9FBF0F004012009642101FB77
:1018C0001097A88900F4004040B1322000EBC70017
:1018D000B0FBF1F000F00700044308E0322000EB19
:1018E00007106421B0FBF1F000F00F0004432C81DD
:1018F000BDE8FF87001001400014014001468888C0
:10190000C0F308007047C1F308028280704700BF2F
:10191000FEE7000000B587B001210820FFF742FC78
:1019200001214804FFF74EFC02208DF8180000202A
:101930008DF81A006020059001208DF81B00022010
:101940008DF8190005A91D48FEF791FF0722052112
:101950001A48FEF7D4FF072206211848FEF7CFFFEA
:101960004FF4E13001900020ADF810000C20ADF8EC
:101970000E000020ADF80C00ADF80A00ADF808002C
:1019800001A90F48FFF754FF012240F225510C48EE
:10199000FFF729FF26208DF8000000208DF80100B8
:1019A0008DF8020001208DF803006846FFF780F8EB
:1019B00001210348FFF7FEFE07B000BD000C024006
:1019C000004400400FB4054B10B503A9044A029827
:1019D00000F018F810BC5DF814FB0000E51D0008CD
:1019E0004C08002002E008C8121F08C1002AFAD1E2
:1019F00070477047002001E001C1121F002AFBD18F
:101A0000704700002DE9FF4F8DB09B460F460446FE
:101A1000002606E025280BD05A460F999047641CF3
:101A2000761C20780028F5D111B03046BDE8F08F43
:101A30000025A8460122984900E0054314F8013F1B
:101A4000203B02FA03F00842F7D120782E2817D164
:101A500014F8010F45F004052A280ED06FF02F026C
:101A60002078A0F1300109290AD808EB880102EB9F
:101A7000410100EB0108641CF2E757F8048B641C79
:101A800020786C280DD004DC4C2812D06A2811D1A3
:101A900004E074280DD07A280CD10AE045F4001532
:101AA00007E0617845F48015814202D1641C05F598
:101AB0008015641C2278692A45D008DC002AB3D03E
:101AC000582A69D0632A10D0642A08D13BE0702AD2
:101AD00067D0732A13D0752A5CD0782A5CD0104660
:101AE0005A460F999047761CD3E017F8040B8DF8EF
:101AF000000000208DF80100E946012003E057F8BE
:101B0000049B4FF0FF3069074FF0000501D40AE055
:101B10006D1C45450DDA8542FADB19F805100029E0
:101B2000F6D106E06D1C8542FCDB19F80510002992
:101B3000F8D12E4404E019F8010B5A460F9990474A
:101B40006D1EF8D2A5E00A200021CDE90801C5F3F9
:101B5000025002280DD001CFC117031E71F10003FE
:101B60000DDA4FF0000CD0EB0C006CEB01012D23D3
:101B700008E0FF1D27F00707F7E80201EDE72B0556
:101B800004D52B238DF8283001233BE0EB0739D017
:101B90002023F7E70A2000E010200021CDE908010A
:101BA00007E01020002145F00405CDE908014FF0C1
:101BB0000808C5F3025002280FD001CF00214FF0D2
:101BC000000A2B071FD5702A0DD0DDE908C38CF061
:101BD000100C5CEA030C0CD015E0FF1D27F0070782
:101BE000F7E80201EBE740228DF828204FF0010AC8
:101BF0000BE050EA010306D030238DF828308DF831
:101C0000292002239A46582A04D024A20DF1200943
:101C10000B9209E026A2F9E7DDE90823FEF7F0FAC6
:101C20000B9B9B5C09F8013D50EA0102F4D1ADEB3E
:101C3000090020300890680701D44FF00108089986
:101C4000884502DDA8EB010000E000208046002569
:101C500006E00AA85A46405D0F9990476D1C761C15
:101C60005545F6DB04E030205A460F999047761C24
:101C7000B8F10001A8F10108F5DC05E019F8010B45
:101C80005A460F999047761C0899481E08900029DB
:101C9000F4DC641CC5E60000092801003031323351
:101CA0003435363738396162636465660000000098
:101CB0003031323334353637383941424344454682
:101CC000000000000022002100BF05E0064830F8B7
:101CD00011000244481CC1B26429F7DB6420B2FB46
:101CE000F0F080B270470000D00C002010B5002149
:101CF00000222FE040F21E3398420BDD174B1B8869
:101D000040F21E3463434FF0E0246361A0F21E33BF
:101D100098B206E0114B1B8843434FF0E024636107
:101D2000012200234FF0E024A36123461B6943F006
:101D30000103236100BF4FF0E023196901F48033F0
:101D4000002BF8D04FF0E0231B6923F001034FF084
:101D5000E0242361002ACDD010BD00002C08002013
:101D600000210F4A127842434FF0E0235A610022CB
:101D70009A611A46126942F001021A6100BF4FF0DF
:101D8000E022116901F48032002AF8D04FF0E022FD
:101D9000126922F001024FF0E0231A61704700003F
:101DA0002A0800204FF0E021096921F005014FF0D9
:101DB000E0221161C21700EB5272C2F3C702074B57
:101DC0001A701946097801EB4102C2EBC1114FF6B6
:101DD000FF7202EAC101024A118070472A080020FE
:101DE0002C08002070B504460D46A1B20748FFF745
:101DF0008AFD00BF40210548FFF7E8FC0028F9D024
:101E000040210248FFF7BEFC204670BD0010014093
:101E100008B5FEF793FE4FF480715C48FEF79BFD1A
:101E200040B9012010235AA2194600900020FFF764
:101E30001BF907E00120102358A21946009000204A
:101E4000FFF712F94FF480615748FEF784FD01282F
:101E500007D1102355A2202100900020FFF704F99C
:101E600007E00120102354A2202100900020FFF75A
:101E7000FBF8FEF75FFF87E010214448FEF762FDA4
:101E800000282FD11E20FFF731FF10213F48FEF719
:101E900059FD30B900BF10213C48FEF753FD002822
:101EA000F9D048480078401C464908700846007838
:101EB00001280AD1FEF7CEFD0120102334A21946D5
:101EC00000900020FFF7D0F80CE000203D4908709A
:101ED000FEF7B6FD0120102330A219460090002025
:101EE000FFF7C2F820212948FEF72CFD08BB1E2071
:101EF000FFF7FCFE20212548FEF724FD30B900BF86
:101F000020212248FEF71EFD0028F9D02E48007837
:101F1000401C2D4908700846007801280AD1FEF7B8
:101F20006FFB0120102321A2202100900020FFF749
:101F30009BF80CE0002024490870FEF757FB0120B5
:101F400010231DA2202100900020FFF78DF8FEF73E
:101F5000F1FE4FF400511D48FEF7F4FCA0B91E201D
:101F6000FFF7C4FE4FF400511848FEF7EBFC38B9F8
:101F700000BF4FF400511548FEF7E4FC0028F8D0EC
:101F8000FEF7DCFD002008BD76E7000000100240EF
:101F90004C4544313A6F70656E2000004C45443129
:101FA0003A636C6F7365000000040240424545507F
:101FB0003A6F70656E200000424545503A636C6F81
:101FC000736500002F080020300800200008024040
:101FD0004FF4A060FEF7A8FDA820FFF7E3FEFEF790
:101FE00043FDFEF7E7FAFEF70FFDFFF773FBFEF781
:101FF000F9FDFEF797F9FFF78DFCFEF763FBFFF79E
:1020000075F80C222FA1334800F014FC4FF4FA604D
:10201000FFF76CFE042230A12E4800F00BFC4FF4B9
:10202000FA70FFF763FE11222DA12A4800F002FC8E
:102030004FF4FA70FFF75AFE0D222EA1254800F04A
:10204000F9FB4FF47A70FFF751FE1E222DA12148B3
:1020500000F0F0FB41F65830FFF748FE2A2231A18C
:102060001C4800F0E7FB4FF4FA60FFF73FFE0E223A
:1020700037A1184800F0DEFB4FF4FA70FFF736FE88
:10208000042237A1134800F0D5FB4FF4FA70FFF794
:102090002DFE15E000F06AF8334908700846007814
:1020A000012801D1FFF7B4FE2F480078022801D1A2
:1020B00000F05CFA2C480078032801D100F0DCFB2A
:1020C000E8E7000041542B524553544F52450D0A46
:1020D000000000000044004041540D0A00000000D0
:1020E00041542B43574D4F44455F4355523D310DAD
:1020F0000A00000041542B4349504D55583D300DC6
:102100000A00000041542B43574A41505F43555247
:102110003D227863222C22313233343536786322E3
:102120000D0A000041542B43495053544152543D31
:1021300022544350222C223139322E3136382E345B
:10214000332E313738222C393030330D0A0000005D
:1021500041542B43495053454E443D320D0A000033
:102160004F4B0D0A000000002908002008B501208F
:1021700010231622002100902020FEF7ADFE012042
:1021800010231722002100903020FEF7A5FE012029
:1021900010231822002100904020FEF79DFE012010
:1021A00010231922002100905020FEF795FEFEF723
:1021B000C1FDD0E11021E848FEF7C4FBC8B91E20DC
:1021C000FFF794FD1021E448FEF7BCFB88B9E34813
:1021D0000078401CE149087008460078042801D1C5
:1021E0000120087000BF1021DB48FEF7ABFB002880
:1021F000F9D02021D848FEF7A5FB98B91E20FFF79B
:1022000075FD2021D448FEF79DFB30B900BF202189
:10221000D148FEF797FB0028F9D0FEF78FFCCF4896
:10222000007808BD4FF40051CD48FEF78BFBA0B9F4
:102230001E20FFF75BFD4FF40051C948FEF782FBFB
:1022400038B900BF4FF40051C548FEF77BFB0028AA
:10225000F8D0FEF773FC0020E3E7C04800780128BF
:1022600004D002287ED003287AD1F6E00120102382
:102270002A22194600900020FEF790FD012010232D
:102280001A46194600901846FEF726FE0120102334
:102290001122194600902020FEF71EFE0120102377
:1022A0000E22194600903020FEF716FE0120102362
:1022B0000F22194600904020FEF70EFE0120102349
:1022C0002022114600900020FEF768FD0120102317
:1022D0001222202100901846FEF7FEFD0120102357
:1022E0001322202100900846FEF7F6FD012010235E
:1022F0001422202100903020FEF7EEFD0120102353
:102300000E22202100904020FEF7E6FD0120102340
:102310000F22202100905020FEF7DEFD0120102327
:102320002022302100900020FEF738FD01201023EC
:102330008CA2302100901846FEF796FE0120102353
:102340000E22302100900846FEF7C6FD0120102322
:102350000F22302100904020FEF7BEFDFEF7EAFC80
:10236000F8E0FFE70120102320221946009000200A
:10237000FEF714FD012010231A4619460090184656
:10238000FEF7AAFD012010231122194600902020FB
:10239000FEF7A2FD012010230E22194600903020E6
:1023A000FEF79AFD012010230F22194600904020CD
:1023B000FEF792FD012010232A2220210090002008
:1023C000FEF7ECFC01201023122220210090184679
:1023D000FEF782FD012010231322202100900846E1
:1023E000FEF77AFD012010231422202100903020D6
:1023F000FEF772FD012010230E22202100904020C4
:10240000FEF76AFD012010230F22202100905020AA
:10241000FEF762FD012010232022302100900020D1
:10242000FEF7BCFC012010234EA23021009018467C
:10243000FEF71AFE012010230E22302100900846DC
:10244000FEF74AFD012010230F223021009040208A
:10245000FEF742FDFEF76EFC7CE0012010232022F7
:10246000194600900020FEF799FC012010231A461F
:10247000194600901846FEF72FFD01201023112267
:10248000194600902020FEF727FD012010230E2280
:10249000194600903020FEF71FFD012010230F2267
:1024A000194600904020FEF717FD0120102320223E
:1024B000114600900020FEF771FC0120102312222B
:1024C000202100901846FEF707FD0120102313225B
:1024D000202100900846FEF7FFFC01201023142263
:1024E000202100903020FEF7F7FC012010230E225F
:1024F000202100904020FEF7EFFC012010230F2246
:10250000202100905020FEF7E7FC012010232A2212
:10251000302100900020FEF741FC0120102311A281
:10252000302100901846FEF79FFD012010230E2257
:10253000302100900846FEF7CFFC012010230F2227
:10254000302100904020FEF7C7FCFEF7F3FBFEF7BA
:10255000F1FB00BF00BF2DE6001002402E08002056
:102560000008024057494649000000001CB5012000
:1025700010230222002100900846FEF7ADFC012046
:1025800010230322002100901846FEF7A5FC01202D
:1025900010230422002100902020FEF79DFC012042
:1025A00010230722002100903020FEF795FC012027
:1025B00010233A22002100904020FEF7EFFB01207B
:1025C00010230022194600901046FEF785FC0120DA
:1025D00010230246194600901846FEF77DFC0120A4
:1025E00010230222194600902020FEF775FC0120DE
:1025F00010230322194600903020FEF76DFC0120C5
:1026000010233A22194600904020FEF7C7FB012014
:1026100010230022202100901046FEF75DFC0120CF
:1026200010230246202100901846FEF755FC012099
:1026300010230822202100900846FEF74DFC0120BF
:1026400010230722202100903020FEF745FC0120B6
:1026500010233A22202100904020FEF79FFB01200A
:1026600010234322202100906020FEF797FB0120D9
:1026700010230022302100901046FEF72DFC01208F
:1026800010230246302100901846FEF725FC012059
:1026900010230922302100902020FEF71DFC01208C
:1026A00010230722302100900846FEF715FC012078
:1026B00010233A22302100904020FEF76FFB0120CA
:1026C00010232522302100906020FEF767FBA6E052
:1026D000FFF7F8FA524908806420FFF707FB5149D9
:1026E0005148FEF74AF84FF400515048FEF72AF9D6
:1026F000C0B91E20FFF7FAFA4FF400514B48FEF71D
:1027000021F938B900BF4FF400514848FEF71AF9D3
:102710000028F8D0FEF712FA00214548FEF729FFFD
:1027200000201CBD3E480088B0F5FA6F10DA3C4826
:102730000088B0F57A7F0BDDD2213D48FEF719FF06
:10274000012010230522002100905020FEF7C4FB39
:1027500033480088B0F52F6F0CDD4FF4E171344839
:10276000FEF707FF012010230622002100905020D1
:10277000FEF7B2FB2A480088B0F57A7F0BDA6421B5
:102780002B48FEF7F6FE01201023042200210090C2
:102790005020FEF7A1FB012010210423CDE90010F9
:1027A0001F4802885020FEF719FC01201021022347
:1027B000CDE900101C48027820215020FEF70EFCC5
:1027C000012010210223CDE90010164802783021A3
:1027D0005020FEF703FCC820FFF788FAFEF7AAFA9C
:1027E0004FF400511148FEF7ADF8C0B91E20FFF7B5
:1027F0007DFA4FF400510D48FEF7A4F838B900BF38
:102800004FF400510948FEF79DF80028F8D0FEF774
:1028100095F900210648FEF7ACFE002081E757E756
:10282000340800203308002032080020000802404D
:10283000000001402DE9F04107460C4615460026F0
:1028400040213846FEF79EFF00BF11E02178384650
:10285000FFF759F800BF40213846FEF7B7FF0028C0
:10286000F9D040213846FEF78DFF641C701CC6B2BB
:10287000AE42EBDBBDE8F08108B500201023152245
:1028800001460090FEF728FB002010231522014688
:1028900000901846FEF720FB002010231522014669
:1028A00000901846FEF718FB002010230A2201466C
:1028B00000902020FEF710FB002010230B22014681
:1028C00000903020FEF708FB002010230C22014668
:1028D00000904020FEF700FB002010230D2201464F
:1028E00000905020FEF7F8FA002010231522014630
:1028F00000906020FEF7F0FA002010231522014618
:1029000000907020FEF7E8FAFEF714FA4DE0274831
:10291000007801282ED100202449087001201023BE
:1029200023A2194600900020FEF79EFB01201023F1
:10293000224A194600900020FEF796FB1F4920A06E
:10294000FFF740F8FEF7F6F91EA11C48FDF74AFC18
:1029500028B9FEF77FF864211848FDF738FC1BA161
:102960001648FDF73FFC28B9FEF76AF864211348C2
:10297000FDF72DFC4FF400511648FDF7E3FFA0B919
:102980001E20FFF7B3F94FF400511248FDF7DAFFAC
:1029900038B900BF4FF400510E48FDF7D3FF0028AF
:1029A000F8D0FEF7CBF8002008BDB0E736080020CD
:1029B000202020202020202020202000980D0020F2
:1029C000257300004C45445F4F4E00004C45445F6A
:1029D0004F464600000802400000000000000000D2
:1029E000002F000000000700070000147F147F1470
:1029F00000242A7F2A1200626408132300364955F6
:102A0000225000000503000000001C2241000000CD
:102A100041221C000014083E08140008083E080863
:102A2000000000A0600000080808080800006060BE
:102A30000000002010080402003E5149453E0000FD
:102A4000427F4000004261514946002141454B31DF
:102A5000001814127F10002745454539003C4A49AB
:102A6000493000017109050300364949493600061D
:102A70004949291E00003636000000005636000085
:102A80000008142241000014141414140000412200
:102A9000140800020151090600324959513E007CD8
:102AA0001211127C007F49494936003E41414122C2
:102AB000007F4141221C007F49494941007F0909AB
:102AC0000901003E4149497A007F0808087F00005B
:102AD000417F4100002040413F01007F0814224116
:102AE000007F40404040007F020C027F007F0408CE
:102AF000107F003E4141413E007F09090906003E2A
:102B00004151215E007F0919294600464949493152
:102B10000001017F0101003F4040403F001F204075
:102B2000201F003F4038403F006314081463000733
:102B30000870080700615149454300007F4141008A
:102B400000552A552A55000041417F00000402012A
:102B50000204004040404040000001020400002008
:102B600054545478007F4844443800384444442046
:102B700000384444487F00385454541800087E09F3
:102B800001020018A4A4A47C007F080404780000BB
:102B9000447D4000004080847D00007F1028440078
:102BA0000000417F4000007C04180478007C080489
:102BB000047800384444443800FC242424180018C5
:102BC000242418FC007C08040408004854545420B1
:102BD00000043F444020003C4040207C001C20403A
:102BE000201C003C4030403C004428102844001C7D
:102BF000A0A0A07C004464544C4414141414141475
:102C00000000000000000000000000000000FC00C8
:102C10000000000002000000000C020C0200000096
:102C20000000000090D0BCD0BC9000030003000066
:102C30001824FE448C000302070201001824D8B0B7
:102C40004C80000300010201C038E438E0000102BA
:102C5000020102020806000000000000000000005F
:102C6000000000F80402000000010204000204F861
:102C700000000004020100009060F8609000000075
:102C8000010000002020FC202000000001000000C6
:102C900000000000000008060000000020202020A6
:102CA0002000000000000000000000000000000202
:102CB000000000000080601C02000403000000000F
:102CC000F8040404F8000102020201000008FC00FC
:102CD00000000002030200001884442418000302CC
:102CE0000202020008042424D800010202020100AA
:102CF00040B088FC80000000000302003C24242433
:102D0000C400010202020100F824242CC0000102C8
:102D1000020201000C04E41C040000000300000097
:102D2000D8242424D800010202020100384444447B
:102D3000F800000302020100000010000000000083
:102D4000020000000000200000000000060000005B
:102D50000020508804020000000001029090909032
:102D600090000000000000000002048850200002D3
:102D7000010000001804C424180000000200000034
:102D8000F804E494F80001020202020000E09CF062
:102D9000800002030000030204FC2424D800020384
:102DA00002020100F80404040C0001020202010006
:102DB00004FC0404F80002030202010004FC247471
:102DC0000C0002030202030004FC24740C00020342
:102DD00002000000F0080444CC400001020201009F
:102DE00004FC2020FC040203000003020404FC0491
:102DF0000400020203020200000404FC04040604AE
:102E00000403000004FC24D00C04020302000302AB
:102E100004FC04000000020302020203FC3CC03C6C
:102E2000FC0003000300030004FC30C4FC040203A4
:102E300002000300F8040404F80001020202010089
:102E400004FC24241800020302000000F884840417
:102E5000F80001020207050004FC24649800020344
:102E600002000302182424448C0003020202010021
:102E70000C04FC040C0000020302000004FC00002F
:102E8000FC04000102020100047C80E01C0400003C
:102E9000030000001CE03CE01C00000300030000F5
:102EA000049C609C0400020300030200041CE01C5C
:102EB00004000002030200000C84641C04000203EE
:102EC000020203000000FE020200000007040400EA
:102ED000000E30C00000000000010200000202FEEF
:102EE00000000004040700000004020400000000C9
:102EF00000000000000000000000080808080808A2
:102F00000000020000000000000000000040A0A03F
:102F1000C00000010202030204FC2020C0000003E4
:102F20000202010000C02020600000010202020035
:102F300000C02024FC0000010202030200C0A0A087
:102F4000C0000001020202000020F8242404000254
:102F5000030202000040A0A0602000070A0A0A0441
:102F600004FC2020C0000203020003020020E40051
:102F70000000000203020000000020E40000080836
:102F80000807000004FC80E0202002030200030286
:102F90000404FC000000020203020200E020E02022
:102FA000C00003000300030020E02020C000020353
:102FB0000200030200C02020C00000010202010044
:102FC00020E02020C000080F0A02010000C02020DD
:102FD000E0000001020A0F0820E040202000020368
:102FE000020000000060A0A0200000020202030016
:102FF0000020F820000000000102020020E0002074
:10300000E00000010202030220E0208060200000B6
:10301000030100006080E080600000030003000006
:1030200020608060200002030003020020E0208076
:1030300060200808070100000020A06020000002B6
:1030400003020200000020DE02000000000704006E
:10305000000000FF00000000000F00000002DE2062
:103060000000000407000000020102040402000046
:103070000000000000000000000000000000000050
:1030800000000000000000F8000000000000003315
:103090003000000000100C06100C060000000000BC
:1030A0000000000040C07840C0784000043F0404A5
:1030B0003F040400007088FC08300000001820FF66
:1030C000211E0000F008F000E018000000211C03A1
:1030D0001E211E0000F00888700000001E2123241D
:1030E0001927211010160E0000000000000000003B
:1030F00000000000000000E01804020000000007CB
:103100001820400000020418E000000000402018D1
:1031100007000000404080F0804040000202010FA4
:1031200001020200000000F0000000000101011F88
:1031300001010100000000000000000080B07000EC
:10314000000000000000000000000000000101017C
:10315000010101010000000000000000003030000B
:1031600000000000000000008060180400601806E5
:103170000100000000E010080810E000000F10201F
:1031800020100F00001010F8000000000020203F69
:1031900020200000007008080888700000302824F3
:1031A0002221300000300888884830000018202094
:1031B00020110E000000C02010F8000000070424B9
:1031C000243F240000F808888808080000192120FE
:1031D00020110E0000E0108888180000000F112058
:1031E00020110E0000380808C83808000000003F11
:1031F000000000000070880808887000001C222170
:1032000021221C0000E010080810E000000031221C
:1032100022110F00000000C0C000000000000030BC
:10322000300000000000008000000000000080600E
:10323000000000000000804020100800000102048F
:103240000810200040404040404040000404040476
:103250000404040000081020408000000020100832
:1032600004020100007048080808F0000000003067
:1032700036010000C030C828E810E00007182724F5
:1032800023140B000000C038E0000000203C2302A3
:103290000227382008F8888888700000203F202006
:1032A00020110E00C0300808080838000718202038
:1032B0002010080008F808080810E000203F20202F
:1032C00020100F0008F88888E8081000203F202010
:1032D0002320180008F88888E8081000203F200004
:1032E00003000000C030080808380000071820203C
:1032F000221E020008F808000008F808203F2101FB
:1033000001213F20000808F8080800000020203FA5
:103310002020000000000808F8080800C080808015
:103320007F00000008F888C028180800203F20010E
:103330002638200008F8080000000000203F202068
:103340002020300008F8F800F8F80800203F003F7F
:10335000003F200008F830C00008F808203F200097
:1033600007183F00E01008080810E0000F102020A8
:1033700020100F0008F808080808F000203F21017D
:1033800001010000E01008080810E0000F182424D4
:1033900038504F0008F8888888887000203F200047
:1033A000030C3020007088080808380000382021FD
:1033B00021221C00180808F8080818000000203F07
:1033C0002000000008F808000008F808001F20206E
:1033D00020201F000878880000C83808000007383F
:1033E0000E010000F80800F80008F800033C070090
:1033F000073C0300081868808068180820302C03F8
:10340000032C30200838C800C83808000000203FCE
:103410002000000010080808C838080020382621BD
:1034200020201800000000FE020202000000007FC1
:1034300040404000000C30C00000000000000001CF
:103440000638C00000020202FE00000000404040BA
:103450007F000000000004020202040000000000DF
:10346000000000000000000000000000808080805C
:103470008080808000020204000000000000000044
:1034800000000000000080808080000000192422DD
:1034900022223F2008F8008080000000003F112019
:1034A00020110E000000008080800000000E11201E
:1034B00020201100000000808088F800000E1120FC
:1034C00020103F200000808080800000001F22220A
:1034D00022221300008080F0888888180020203F76
:1034E000202000000000808080808000006B949489
:1034F0009493600008F8008080800000203F210045
:1035000000203F2000809898000000000020203F0D
:1035100020200000000000809898000000C08080FB
:10352000807F000008F8000080808000203F240297
:103530002D302000000808F8000000000020203F87
:10354000202000008080808080808000203F20003C
:103550003F20003F8080008080800000203F2100CD
:1035600000203F200000808080800000001F20207D
:1035700020201F00808000808000000080FFA120AC
:1035800020110E000000008080808000000E1120BD
:1035900020A0FF80808080008080800020203F214C
:1035A00020000100000080808080800000332424FF
:1035B00024241900008080E0808000000000001FAB
:1035C000202000008080000000808000001F20205C
:1035D00020103F20808080000080808000010E301D
:1035E0000806010080800080008080800F300C037E
:1035F0000C300F0000808000808080000020312E81
:103600000E312000808080000080808080818E705C
:103610001806010000808080808080000021302C0E
:103620002221300000000000807C02020000000027
:10363000003F404000000000FF00000000000000CC
:10364000FF0000000002027C800000000040403FBC
:103650000000000000060101020204040000000056
:10366000000000000000000000000000000000005A
:10367000000000000000000000000000000000004A
:1036800000000000000000000000000000F0F0F06A
:10369000000000000000000000017F0100000000A9
:1036A00000000000001C1C1C0000000000008060E6
:1036B000301C8C60301C0C0000000000000000007A
:1036C00000000000000000000000000000000000FA
:1036D000000000E00000000000E000000086E69F1F
:1036E00086868686E69F860000011F010101010192
:1036F0001F010100000080C06020F820E0C0000031
:10370000000003070C18FF70E18100000000070FA4
:1037100010107F100F070000806020608000000004
:10372000E02000000F3020309F70DC371030C000E8
:103730000000100E03000718101807000000C0203A
:1037400020E0C0000000000080E01F38E88703C4CC
:103750003C040000070F1810100B070D1010080094
:1037600000808C4C380000000000000000000000C9
:103770000000000000000000000000000000000049
:103780000000000000000000000080E0300804009D
:103790000000000000FEFF0100000000000000002B
:1037A0000000030F1820400000040830E0800000F3
:1037B000000000000000000001FFFE00000000000B
:1037C000004020180F03000000000000000000006F
:1037D0000000C00000000000004266663C18FF18B0
:1037E0003C6666420000000000000300000000008C
:1037F0000000000000008000000000000010101019
:103800001010FF1010101010000000000000030046
:1038100000000000000000000000000000000000A8
:1038200000000000000000000000000000808C4C40
:103830003800000000000000000000000000000050
:1038400000000000001010101010101010101000D8
:103850000000000000000000000000000000000068
:103860000000000000000000000000000000000058
:103870000000000000001C1C1C00000000000000F4
:103880000000000000000000E0380C000000000014
:1038900080701C03000000000060380E0100000072
:1038A00000000000000080C060202060C080000098
:1038B00000FEFF010000000001FFFE000001070EF6
:1038C000181010180E0701000000808080C0E00072
:1038D000000000000000000000FFFF0000000000EA
:1038E00000001010101F1F1010100000008040205A
:1038F00020202060C08000000003030080402038AA
:103900001F070000001C1A1918181818181F0000AB
:103910000080C020202060C0800000000003030061
:103920001010182FE780000000070F10101010185B
:103930000F070000000000000000C0E0F0000000E1
:1039400000C0B088868180FFFF80800000000000FA
:103950000010101F1F1010000000E0606060606029
:103960006060000000003F1008080818F0E0000048
:1039700000070B101010101C0F030000000080C087
:1039800040202020E0C0000000FCFF2110080808B3
:1039900018F0E0000001070C18101010080F0300C9
:1039A0000000C0E06060606060E060000000030054
:1039B0000000E0180700000000000000001F1F00CA
:1039C000000000000080C0602020202060C0800037
:1039D0000087EF2C1818303068CF830000070F08DD
:1039E00010101010180F07000000C0C02020202069
:1039F000C0800000001F3F604040402010FFFE00DC
:103A000000000C1C101010080F0300000000000044
:103A1000000000000000000000000000000E0E0E7C
:103A20000000000000000000001C1C1C0000000042
:103A30000000000000000000000000000000000086
:103A4000000C0C00000000000000000000583800CE
:103A50000000000000000000000000804020100076
:103A60000000102844820100000000000000000057
:103A70000000010204081000000000000000000027
:103A8000000000000084848484848484848484000E
:103A900000000000000000000000000000001020F6
:103AA00040800000000000000000000000000182D3
:103AB000442810000000100804020100000000006B
:103AC00000C020201010101030E0C00000030300E0
:103AD00000F010080C070300000000001C1C1C0074
:103AE00000000000000000C0406020202040C00016
:103AF00000FCFF01F00E03C1FE03807F0001070EF2
:103B000008111110110904020000000080E0E0001B
:103B1000000000000000807C4340477FF8800000E8
:103B200010181F1000000000131F1C1020E0E020E0
:103B300020202060C080000000FFFF10101010182F
:103B40002FE78000101F1F1010101010180F070013
:103B5000000080C0402020202060E00000FCFF0129
:103B600000000000000001000001070E18101010F6
:103B70000804030020E0E02020202040C080000056
:103B800000FFFF000000000001FFFE00101F1F10DB
:103B9000101018080E07010020E0E020202020204F
:103BA0002060800000FFFF101010107C000000005B
:103BB000101F1F10101010101018060020E0E02039
:103BC000202020206060800000FFFF101010107C7B
:103BD00000000100101F1F10000000000000000086
:103BE000000080C06020202040E0000000FCFF01B9
:103BF00000004040C0C140400001070E18101010E6
:103C00000F0F000020E0E0200000000020E0E02096
:103C100000FFFF101010101010FFFF00101F1F10EA
:103C200000000000101F1F100000202020E0E020F6
:103C3000202000000000000000FFFF000000000046
:103C400000001010101F1F101010000000000000D6
:103C5000202020E0E020202000000000000000FFE5
:103C6000FF0000000060E0808080C07F3F00000017
:103C700020E0E020000020A06020200000FFFF30B6
:103C8000187CE3C000000000101F1F10000001138B
:103C90001F1C181020E0E0200000000000000000C1
:103CA00000FFFF000000000000000000101F1F10B8
:103CB000101010101018060020E0E0E000000000D6
:103CC000E0E0E02000FF013FFEC0E01E01FFFF003A
:103CD000101F1000031F0300101F1F1020E0E0C082
:103CE000000000000020E02000FF0003071C78E037
:103CF0008000FF00101F100000000000030F1F00D5
:103D0000000080C060202060C080000000FEFF0135
:103D10000000000000FFFE000001070E1810101840
:103D20000C07010020E0E0202020202060C080005F
:103D300000FFFF2020202020301F0F00101F1F1029
:103D40000000000000000000000080C06020206033
:103D5000C080000000FEFF010000000000FFFE0028
:103D60000001070E1111133C7C67210020E0E020C8
:103D70002020202060C0800000FFFF101030F0D015
:103D8000080F0700101F1F10000000030F1C101069
:103D90000080C060202020204040E00000070F0C81
:103DA0001818303060E08100001F0C08101010104F
:103DB000180F07008060202020E0E0202020608095
:103DC0000100000000FFFF000000000100000000F3
:103DD000101F1F100000000020E0E0200000000085
:103DE0000020E02000FFFF00000000000000FF00B6
:103DF00000070F1810101010100807002060E0E0F6
:103E00002000000020E060200000077FF880008094
:103E10007C03000000000000071F1C0700000000DA
:103E200020E0E02000E0E0200020E0200007FFF894
:103E3000E01FFFFCE01F00000000031F0300011F44
:103E400003000000002060E0A0000020E0602000EF
:103E5000000000038F7CF8C6010000000010181E4F
:103E6000130001171F1810002060E0E02000000080
:103E700020E06020000001073EF8E0180700000085
:103E800000000010101F1F101000000000806020B4
:103E9000202020A0E0E0200000000000C0F03E0F45
:103EA0000300000000101C1F17101010101806004F
:103EB0000000000000FC04040404040000000000F2
:103EC00000FF00000000000000000000007F4040F4
:103ED00040404000000010E0000000000000000032
:103EE00000000000031C60800000000000000000D3
:103EF000000000030C70800000000404040404FCB3
:103F00000000000000000000000000FF00000000B2
:103F1000000040404040407F0000000000000010D2
:103F2000080C040C08100000000000000000000055
:103F30000000000000000000000000000000000081
:103F40000000000000000000000000000000000071
:103F50000000000000000000808080808080808061
:103F60008080808000000004040808000000000039
:103F70000000000000000000000000000000000041
:103F80000000000000000000000000000000000031
:103F900000000000000098D844642424FCF80000CD
:103FA000000F1F18101010081F1F10180020E0F03D
:103FB00000000000000000000000FFFF18080404DB
:103FC0000CF8F00000001F0F18101010180F03005D
:103FD00000000000000000000000000000E0F818F1
:103FE0000404043C3800000000030F0C10101010F3
:103FF000080600000000000000000020E0F00000C3
:1040000000E0F81C04040408FFFF000000030F1880
:10401000101010081F0F0800000000000000000032
:10402000000000000000E0F8484444444C78700070
:104030000000030F0C18101010080400000000000E
:1040400080C0602020E0C00000040404FFFF0404DE
:1040500004040000000010101F1F101010000000CA
:10406000000000000000000000000000000070F8E8
:104070008C04048CF874040C007076CF8D8D8D89BF
:10408000C87870000020E0F0000000000000000090
:104090000000FFFF08040404FCF8000000101F1FCC
:1040A000100000101F1F10000000000000606000E2
:1040B000000000000000040404FCFC0000000000FC
:1040C00000001010101F1F10101000000000000052
:1040D000000000606000000000000000040404FC18
:1040E000FC0000000000C0C08080C07F3F000000D6
:1040F0000020E0F000000000000000000000FFFFD2
:1041000080C0F41C0404000000101F1F1100031FD6
:104110001C1010000000202020E0F0000000000033
:104120000000000000FFFF00000000000000101071
:10413000101F1F1010100000000000000000000001
:104140000000000004FCFC0804FCFC0804FCFC006B
:10415000101F1F10001F1F10001F1F100000000065
:1041600000000000000000000004FCFC080804043B
:10417000FCF8000000101F1F100000101F1F10008F
:1041800000000000000000000000000000E0F01847
:104190000C04040C18F0E00000030F0C10101010B9
:1041A0000C0F0300000000000000000000000000F1
:1041B0000004FCFC080404040CF8F0000080FFFF7D
:1041C000889010101C0F0300000000000000000089
:1041D0000000000000E0F81C04040408F8FC0000E3
:1041E00000030F1810109088FFFF800000000000EF
:1041F0000000000000000000040404FCFC1008049F
:10420000040C0C001010101F1F10101000000000F4
:1042100000000000000000000000000000003078F6
:10422000CCC48484840C1C0000001E1810101011D3
:10423000190F06000000000000C000000000000090
:1042400000040404FFFF0404040000000000000058
:104250000F1F1010100C00000000000000000000F4
:10426000000000000004FCFE00000004FCFE000052
:1042700000000F1F181010081F0F0800000000009A
:10428000000000000000000000040C3CFCC4000022
:10429000C43C0C0400000000010F1E0E01000000D1
:1042A000000000000000000000000000043CFCC40E
:1042B00000E47CFC84807C040000071F07000007EA
:1042C0001F070000000000000000000000000000C8
:1042D0000004041C7CE4C0341C0404000010101C06
:1042E0001601131F1C181000000000000000000041
:1042F0000000000000040C3CFCC400C43C040400AA
:104300000000C080C1370E01000000000000000066
:10431000000000000000000000001C0404C4F47C45
:104320001C0400000000101C1F17111010180E00B4
:1043300000000000000000F80C0400000000000075
:10434000001028EF00000000000000000000003F07
:1043500060400000000000000000FF0000000000BE
:10436000000000000000FF0000000000000000004E
:104370000000FF00000000000000040CF800000036
:104380000000000000000000EF2810000000000006
:10439000000040603F00000000000000001806021E
:1043A0000204081020203008000000000000000077
:1043B00000000000000000000000000000000000FD
:1043C000004042445840407F40405048C6000000F2
:1043D000004044444444444444444444FF000000F6
:1043E0000808E8292E28E80808C80C0BE808080087
:1043F0000000FF0949897F00000F40807F00000016
:104400004040424458C0407F40C050484640400071
:104410008080402018070000003F40404040780066
:1044200000FE424242FE0042A29E82A2C2BE0000A4
:10443000806F080828CF00002FC8080828CF000088
:1044400002E222223E00809E9292F292929E800090
:10445000004382423E40474444447F444454E70082
:104460000000F010101010FF10101010F0000000ED
:1044700000000F04040404FF040404040F000000FF
:1044800000F2929292929E00F2929292929E00007C
:104490000010114A88443F0010114A88443F000030
:1044A0000000FC242424FC252624FC2424240400CD
:1044B00040308F80844C55252525554C80808000C8
:1044C0001060028C0000FE9292929292FE00000018
:1044D00004047E01407E42427E427E42427E400093
:1044E0001060028C00FE929292929292FE00000066
:1044F00004047E014448507F40407F5048444000BF
:104500001060020CC000E22C203F2028E6000000D2
:1045100004047C030000FF09090949897F000000A9
:10452000000000FC54545655545454FC0000000044
:104530004030000339414145594141730008300082
:1045400000F808080808887F8808080808F80000AC
:1045500000FF0008040201000001024C807F0000FF
:10456000100C4424148445264484142444140C0060
:10457000040402FE45444444444445FE020404004D
:10458000101010FF9020984828090E2848A81800FD
:104590000242817F0040404242427E42424240000D
:1045A00040504E4848FF48484840F80000FF00008F
:1045B00000003E0202FF12221E000F40807F00001A
:1045C000101010FF9020988888E98E8888A898009D
:1045D0000242817F000080844B2810284780000021
:1045E0004030EF242480E49C105454FF547C10008D
:1045F00001017F21512618274445455F4545440068
:10460000008060F807404848E85F4848484040005C
:10461000010000FF0000020B1222D20A0600000077
:104620000000FC04D4545454D4047F84C5360400E0
:104630008866010063828292AB8482C10224CF002B
:1046400080809E9292929EE0809EB2D2929E800046
:104650000808F4949292F10001F2929494F8080000
:10466000000000000000000000000000000000004A
:10467000000000000000000000000000000000003A
:10468000040444C44F4444C424242FB42404040028
:1046900040442424150C04FE040C1524244440003A
:1046A0000000F8494A4C48F8484C4A49F8000000D4
:1046B00010101312121212FF121212121310100005
:1046C000404042CC00504EC8487FC8484840000097
:1046D0000040201F20504C4340404F50505C400051
:1046E000080808F8080800F2121AD61212F202009E
:1046F0001030100F0808804F20180710204F80003E
:10470000000000C080808080808080FC8480808069
:10471000808080C0C0000000000000FF7F4040405B
:10472000404040FF40404040404040FF7F0000008C
:1047300000000000000000000000007F700000008A
:104740000000000000000000000000000000000069
:1047500000000000000000FCF80000000000000065
:10476000000000000000000000000000FFFE020248
:1047700002020202020202FFFF020202020202021F
:104780000202FF0300000000000000001F1F0404DD
:1047900004040404040404FFFF04040404040404E3
:1047A00004041F00000000000000000000000000E2
:1047B000000000000000007F3F000000000000003B
:1047C00000000000000000000000000000000000E9
:1047D00000000000000000000000000000000000D9
:1047E0000000000000F8F8F0F07020000000000069
:1047F00000000000000000000000000000000000B9
:1048000000000000000000000000000000000000A8
:104810008000000000000000000000000000000018
:104820000000000000FFFFFFFF000000000000008C
:104830000000000000000000000000008080000078
:104840000000000000000000000000000000000068
:1048500000FFFFFE06060606060606060606060614
:104860000606060606FFFFFFFF0606060606060604
:104870000606060606060606060606FFFFFFFF07F3
:104880000200000000000000000000000000000026
:1048900000FFFFFF0000000000000000000000001B
:1048A0000000000000FFFFFFFF000000000000000C
:1048B0000000000000000000000000FFFFFFFF00FC
:1048C00000000000000000000000000000000000E8
:1048D00000FFFFFF181818181818181818181818BB
:1048E0001818181818FFFFFFFF18181818181818AC
:1048F0001818181818181818181818FFFFFFFF00B4
:1049000000000000000000000000000000000000A7
:104910000201010000000000000000000000000093
:104920000000000000FFFFFFFF000000000000008B
:104930000000000000000000000000010100000075
:104940000000000000000000000000000000000067
:104950000000000000000000000000000000000057
:104960000000000000FFFFFFFF000000000000004B
:104970000000000000000000000000000000000037
:104980000000000000000000000000000000000027
:104990000000000000000000000000000000000017
:1049A00000000000001F1F0F0F00000000000000AB
:1049B00000000000000000000000000000000000F7
:1049C0000000000000000000E8490008000000208E
:1049D00050080000C6020008E84B000850080020FC
:1049E000B0090000F419000840120003050911FF86
:1049F000118905C300E000F000F8000100083A4406
:104A000028FF11AA440001500B830138448292927E
:104A10007401831120087C44FF017D7D7D044105E4
:104A200040047D01FF6E920102613F033B01017E64
:104A300081419149F20101011BC230083F3F03034C
:104A4000F3131101100601F111618140200581610C
:104A500011F14733414107200401C12120A321C1A5
:104A60001431193137040736D33303033F3F426013
:104A700006E0E000007FA8127FBF40040618060A87
:104A80001008000040407F4040A410041F20400157
:104A9000A3201F143300600E6004300C034605345D
:104AA000C210040707060170090404048444444446
:104AB000840780050484C4041501120A7111214081
:104AC000073D0707C9200F0000101814121100003D
:104AD0000F1010100F0F131F1015600D0810121279
:104AE0000D00001800000D120A51295130015E011D
:104AF000528001013B4514047F030CA915DE1C05FF
:104B0000385454582503080A2004047800003C4017
:104B1000407C2000092CFFAAAAAA280800FF6810E0
:104B2000062649494932101005020408100F0D6F7E
:104B300000049D01040D9D0004156343F808012441
:104B40000500F81860E82404806018235720202905
:104B500023E01021A310E01449B4313908043C8843
:104B60006818630D15FF037DEA039DFF0371144D63
:104B7000FF031D06043D2E040942E91C06402020C7
:104B800020C04A04110721EA3E40520452600E81BF
:104B900018712951070D4769031C060C0A0A090CF4
:104BA0000004156B2D00042004080F0815100508DB
:104BB00009090E071D180430050909090F0A5129B2
:104BC00051070DFF00040D2100042D27051E12487A
:104BD000060E24135403ED64072004020304044466
:084BE00005060708097000003A
:040000050800018965
:00000001FF
